:1000000000000420F9020000210300002303000087
:10001000C59700002703000029030000000000002E
:100020000000000000000000000000007D6D0000E6
:100030002D03000000000000A16D0000310300004E
:10004000C14A000033030000E9240000330300002C
:1000500033030000330300001D4F00003303000092
:1000600033030000330300003303000033030000B8
:1000700033030000330300003303000033030000A8
:1000800033030000B17000003303000033030000AD
:100090003303000033030000330300003303000088
:1000A0003303000033030000330300003303000078
:1000B00033030000330300000000000000000000D4
:1000C0003303000033030000330300003303000058
:1000D000330300003303000033030000000000007E
:1000E0000000000000000000000000000000000010
:1000F0000000000000000000000000000000000000
:1001000000000000000000000000000000000000EF
:1001100000000000000000000000000000000000DF
:1001200000000000000000000000000000000000CF
:1001300000000000000000000000000000000000BF
:1001400000000000000000000000000000000000AF
:10015000000000000000000000000000000000009F
:10016000000000000000000000000000000000008F
:10017000000000000000000000000000000000007F
:10018000000000000000000000000000000000006F
:10019000000000000000000000000000000000005F
:1001A000000000000000000000000000000000004F
:1001B000000000000000000000000000000000003F
:1001C000000000000000000000000000000000002F
:1001D000000000000000000000000000000000001F
:1001E000000000000000000000000000000000000F
:1001F00000000000000000000000000000000000FF
:100200000348044B834202D0034B03B118477047A5
:100210002841002028410020000000000548064930
:100220000B1AD90F01EBA301491002D0034B03B104
:100230001847704728410020284100200000000096
:1002400010B5064C237843B9FFF7DAFF044B13B11E
:100250000448AFF300800123237010BD2841002023
:100260000000000008C7000008B5044B1BB104499A
:100270000448AFF30080BDE80840CFE7000000006D
:100280002C41002008C70000A3F5803A704700BF4A
:10029000154B002B08BF114B9D46FFF7F5FF0021C2
:1002A0008B460F461148124A121A09F0B5FB0C4B47
:1002B000002B00D098470B4B002B00D09847002014
:1002C000002104000D000B4809F086FA09F0B4FA89
:1002D0002000290003F060FE09F084FA0000080005
:1002E0000000000000000000000004202841002061
:1002F00044BE00200D9800000649074A074B9B1A90
:1003000003DD043BC858D050FBDC04F099F8FFF73C
:10031000BFFF000078C700000040002028410020F7
:10032000FEE7FEE7FEE7FEE7FEE7FEE7FEE7FEE7A5
:10033000FEE7FEE700B585B00190019B002B0AD0D7
:10034000074B43F001030393019B9B010293039B23
:100350000298984700E000BF05B05DF804FB00BFBD
:1003600060BA000000B583B00190019B002B0AD059
:100370004FF47A70FFF7DEFF019B013B0193019B75
:10038000002BF5D100E000BF03B05DF804FB08B519
:1003900003F03CFB00BF08BD00B589B0039002919B
:1003A0000192019B002B33D0002307930323069374
:1003B000029A079B1344019A1946002003F0A6FAFB
:1003C0000590079A059B13440793019A059BD31A3E
:1003D0000193059B002B13D10F4B1B7883F0010376
:1003E000DBB2002B13D10120FFF7BCFF069B013BC2
:1003F0000693069B002B03D1074B00221A7007E0DF
:10040000054B01221A70019B002BD1D100E000BFE7
:1004100000BF09B05DF804FB4441002000B585B081
:1004200003900291054B00934023054A02990398DB
:1004300000F012F800BF05B05DF804FB990300005E
:100440004841002082B0019000BF02B0704782B0E6
:10045000019000BF02B0704700B5A1B005900491B3
:1004600003920293049801F023FF039B1593029BD0
:1004700016930023179300238DF8603000231993FF
:10048000229B1A9300231F930FA91F9B08220498F5
:1004900001F0CCFF08231F93119B1293BDF840304D
:1004A000ADF84C30BDF84230ADF84E3000238DF839
:1004B00051309DF83C3003F00303DBB2012B26D111
:1004C0000F9BC3F395231C939DF83C30C3F3C203E9
:1004D000DBB28DF85030BDF83C30C3F38313DBB290
:1004E0001B931B9B9A0009A91F9B049801F09EFF78
:1004F0001B9B9B001F9A13441F9312AA09A915ABBB
:10050000009313461B9A1C9800F074FE2FE09DF890
:100510003C3003F00303DBB2022B28D1BDF83E30A0
:10052000C3F389139BB21E939DF83C30C3F3C203FF
:10053000DBB28DF850301E9B082B28BF08231D937B
:1005400007A91F9B1D9A049801F070FF1F9A1D9B1D
:1005500013441F931E9A1D9BD31A1E9315AB12AA08
:1005600007A81D9900F0E8FE1E9B002BE3D104981C
:1005700001F0ADFE00BF21B05DF804FB82B0019038
:10058000019BDB6801225A7100BF02B07047000076
:1005900000B583B04FF0FF330193FFF7F8FE04215D
:1005A000054800F03BFD01900348FFF7E7FF00BF5F
:1005B00003B05DF804FB00BF4CC7000000B583B07A
:1005C00001900091019B1B681B6800990198984756
:1005D00000BF03B05DF804FB00B583B00190019B40
:1005E0001B685B680198984700BF03B05DF804FB87
:1005F00000B583B00190019B1B689B6801989847E8
:1006000000BF03B05DF804FB82B001900B468DF88B
:100610000330019BDB689DF803201A7100BF02B014
:10062000704782B00190019BDB681B79184602B0CD
:10063000704782B00190019BDB6801225A7100BFB4
:1006400002B0704782B00190019BDB685B7918466D
:1006500002B0704700B585B0019000910C4B0022AC
:100660001A700C4801F088FD0390039B002B01D009
:10067000039B08E0084801F0EDFE084A084BD31A36
:10068000DB0802930023184605B05DF804FB00BFA9
:10069000704600205CC7000078BA00004CC700001C
:1006A0000CC70000024A034BD31ADB0818467047F8
:1006B0004CC700000CC7000000B587B001900B4686
:1006C0008DF803309DF80330002B1FD0FFF7EAFFB1
:1006D00004900023059313E0059B9B000E4A1344EE
:1006E0000393039B1B881A46019B1B689A4204D103
:1006F000019B059A1A60002309E0059B01330593CD
:10070000059A049B9A42E7D3052300E0002318468C
:1007100007B05DF804FB00BF2841002000B585B09C
:1007200001900B468DF803309DF8032001AB114674
:100730001846FFF7C1FF0346002B07D1019BDB00E2
:10074000054A13440393039B1B6800E000231846EB
:1007500005B05DF804FB00BF0CC7000084B0019039
:100760000B468DF80330019BDB00174A13440293BC
:100770009DF80330013B032B1CD801A252F823F053
:100780009107000099070000A1070000AB070000D7
:1007900002238DF80F3011E004238DF80F300DE0A7
:1007A000029B1B798DF80F3008E0029B5B798DF876
:1007B0000F3003E000238DF80F3000BF9DF80F309D
:1007C000184604B0704700BF0CC7000084B0019009
:1007D000009100238DF80F30019B1B7803F0040378
:1007E000DBB2002B24D0019B1B78C3F30103DBB2E7
:1007F000012B02D0022B0CD017E0009B1B68019A42
:100800001288C2F38312D2B213449A1C009B1A605E
:100810000BE0009B1B68019A5288C2F3891292B2C6
:1008200013449A1C009B1A6000BF01238DF80F30FF
:100830009DF80F30184604B07047000000B58BB02B
:100840000023ADF826303B4801F067F83A4801F044
:1008500064F83A4B9B680493394B1B680693049ADF
:10086000069B134002339B00344A1344043308931D
:1008700004AB19460898FFF7A9FF0346002B09D0DF
:10088000049A069B134002339B002C4A1344043302
:100890000893EDE700BF0023079311E0049B5A1C67
:1008A0000492069A1340079A920001A90A44234928
:1008B00002339B000B445B681360079B0133079373
:1008C000079B012BEAD99DF80430C3F30103DBB287
:1008D000012B10D0022B1CD1BDF80A30ADF8263008
:1008E000BDF80630C3F389139BB203339A08049B07
:1008F000134404930EE0BDF80A30ADF82630BDF87D
:100900000430C3F38313DBB21A46049B13440493ED
:1009100000E000BF084801F00CF80590059B002B93
:1009200002D0049B054A9360BDF8263018460BB0F0
:100930005DF804FB88660020846600207046002075
:100940000840002000B585B00021074800F06EFF88
:100950000390039B0293029B83F310030193019B7B
:10096000184605B05DF804FB8C66002000B589B020
:100970000390029101920093039B1B0C0693FFF7D7
:10098000E1FF0790079B1904009B5A1C0A9B134028
:10099000069A0A431B4902339B000B445A60009A93
:1009A0000A9B134002339B00164A134404330593F9
:1009B000039B03F00703D9B2059A137861F3C503CB
:1009C0001370019B03F00F03D9B2059A138861F3EA
:1009D00089131380029BC3F31501059A136861F311
:1009E0009F231360059A1378012161F301031370AB
:1009F000059A13786FF38203137000BF09B05DF896
:100A000004FB00BF7046002000BF704700B58BB0EC
:100A10000390029113468DF80730039B023308932D
:100A200001238DF81F30002000F0ECFE3E4B5A6889
:100A3000029B1A603D4B1A683B4B99683A4B5B68C6
:100A4000CB1A13440133099314E00121384800F014
:100A500034FFFFF7F3FE05900599354800F02DFFB0
:100A6000324B1A68304B99682F4B5B68CB1A134492
:100A700001330993089A099B9A42E6D89DF81F30E2
:100A8000002B48D0002304939DF80730002B17D08B
:100A90009DF81030012262F301038DF810309DF8AB
:100AA000103043F004038DF81030039B03F00F0364
:100AB000DAB2BDF8103062F38913ADF8103016E0E9
:100AC0009DF81030022262F301038DF810309DF87A
:100AD000103043F004038DF81030039BC3F3090377
:100AE0009AB2BDF8123062F38F13ADF812300E4B8C
:100AF0005A680E4B1B68134002339B000A4A13448A
:100B000004330693049A069B1A60074B5A68089BA5
:100B10001344054A5360002000F07DFE9DF81F300D
:100B200018460BB05DF804FB70460020084000201A
:100B30008C66002000B58BB005900491039202935F
:100B4000204B1B68079306AB012219460298FFF75A
:100B50005DFF0346002B24D0069B0233099300233C
:100B6000089311E0089B9B00039A1A44099B591CA7
:100B7000099107990B401268134902339B000B44FB
:100B80005A60089B01330893089A029B9A42E9D362
:100B9000069A079B00931346029A04990598FFF75B
:100BA000E5FE094B1B78002B05D000BF00F02AF8AA
:100BB0000346002BFAD1FFF727FF00BF0BB05DF80B
:100BC00004FB00BF084000207046002000B583B041
:100BD000019000910023002200990198FFF7AAFFDD
:100BE00000BF03B05DF804FB054B9A68044B5B68DB
:100BF0009A420CBF01230023DBB21846704700BFA6
:100C00007046002000B599B0FFF7EEFF0346002BB9
:100C100001D00023BFE19C4B03F500531A4600238B
:100C20009361BFF34F8F00BF974B9B680493974B23
:100C30001B681093049A109B134002339B00924A46
:100C400013440433119300231793002316930023B6
:100C50000F9304AB19461198FFF7B8FD0346002B1C
:100C60001AD0894B03F500539B69002B14D1864B96
:100C70005A68049B9A4205D8834B5B68824A93600A
:100C8000002388E1049A109B134002339B007E4AA4
:100C9000134404331193DCE70023159311E0049B04
:100CA0005A1C0492109A1340159A920001A90A4402
:100CB000754902339B000B445B681360159B01333D
:100CC0001593159B012BEAD99DF8043003F003031B
:100CD000DBB2022B40F09C80BDF80630C3F38913D1
:100CE0009BB20D93BDF80630C3F389139BB2502B12
:100CF00028BF50239BB20C930C9BC3F309039AB2F9
:100D0000BDF8063062F38F13ADF806300C9B083344
:100D10000B939DF80430C3F3C203DBB20F930B991E
:100D20005B4801F034FA1790179B002B00F0D2803B
:100D3000179801F0BDFA01A9169B0822179801F037
:100D400061FB169B08331693049BDA43109B1340F8
:100D500001339B000A930C9A0A9B9A4242D90A9B40
:100D6000002B08D0049A109B134002339B00464A84
:100D70001344043300E0474B08930A9B002B02D036
:100D80000A9BDBB201E00C9BDBB28DF81F300A9BA3
:100D9000002B01D03F4B00E0002306930A9B002B61
:100DA00006D00C9BDAB20A9BDBB2D31ADBB200E0AE
:100DB00000238DF817309DF81F20169B089917986F
:100DC00001F020FB9DF81F30169A13441693069BE2
:100DD000002B16D09DF81720169B0699179801F046
:100DE00011FB0EE0049A109B134002339B00264A2D
:100DF000134404330993169B0C9A0999179801F030
:100E000001FB0D9B03339A08049B1344049361E098
:100E10009DF8043003F00303DBB2012B5AD1BDF877
:100E20000430C3F38313DBB2062B28BF0623DAB2E8
:100E3000BDF8043062F38913ADF80430BDF8043016
:100E4000C3F38313DBB202330E939DF80430C3F374
:100E5000C203DBB20F930E9B9B0019460C4801F0B6
:100E600096F91790179B002B34D0179801F020FAB1
:100E700001A9169B0822179801F0C4FA169B0833A3
:100E80001693002315931CE07046002008400020B4
:100E90005CC700007C460020049B5A1C0492109AF8
:100EA000134002339B003E4A1344191D169B042233
:100EB000179801F0A7FA169B04331693159B01337C
:100EC0001593BDF80430C3F38313DBB21A46159BA8
:100ED0009342E1D3179B002B3CD0314B03F50053D9
:100EE0001B6914932E4B03F500539B69002B1BD0F9
:100EF000179801F0ECF948E000238DF84F30149872
:100F0000FFF7A0FB0346002B02D001238DF84F30E2
:100F10009DF84F30002B03D017991498FFF74EFB24
:100F2000149BDB681B681493149B002BE4D1179867
:100F300001F0CDF9002000F065FC194B03F50053DA
:100F40009B69002B02D1049B154A9360002000F09E
:100F500062FC1AE0124B03F500531B69129306E082
:100F60001298FFF745FB129BDB681B681293129BDC
:100F7000002BF5D10B4A0C4BD31ADB081B0443F0B2
:100F800002030A491846FFF721FEFFF72DFE03462C
:100F900083F00103DBB2184619B05DF804FB00BF13
:100FA000704600203CC700000CC7000088BA000053
:100FB00000B585B00023039324E0174B03F50053DD
:100FC0001B69029301238DF807300FE00298FFF7A9
:100FD00028FB03461A46039B934203D100238DF856
:100FE000073006E0029BDB681B680293029B002B24
:100FF000ECD19DF80730002B01D0039B07E0039B49
:1010000001330393039B092BD7DD4FF0FF331846C1
:1010100005B05DF804FB00BF7046002000B585B048
:1010200001900B468DF80330FFF7C2FF0390039B3E
:10103000B3F1FF3F01D1039B27E0039BDBB21946CD
:101040000198FFF7E1FA134B03F500531B69002BDE
:101050000AD1104B03F500531A46019B1361019B03
:10106000DB6800221A600FE00A4B03F500531B698E
:10107000DA68019BDB6812681A60064B03F50053BF
:101080001B69DB68019A1A60039B184605B05DF87E
:1010900004FB00BF7046002000B583B00D4B03F584
:1010A00000531B6901930B4B01221A7009E0019850
:1010B000FFF7BFFA0198FFF78FFA019BDB681B6807
:1010C0000193019B002BF2D100BF00BF03B05DF87C
:1010D00004FB00BF7046002082B00190009100BF69
:1010E00002B0704710B584B003900291039BDB8877
:1010F000002B0AD0039BDB881A461F4B0093134634
:101100001E4A1F49029800F0D4FC039B1B7A052B52
:101110002ED0039B5B7A002B12D0039B9B881A4630
:10112000039B1B7A19461046FFF718FB03461A4625
:10113000144B53F822301A461349029800F0B9FCB8
:10114000039B1B6819460298FFF7C6FF039B1B7A97
:101150001A460E4B53F82240039B9B8800211846E9
:10116000FFF7DCFA034622460949029800F0A1FC89
:1011700000BF04B010BD00BFBCBA0000CCBA000074
:1011800004BB0000204000201CBB00000C400020DD
:1011900020BB000000B585B00390029113468DF886
:1011A0000730039B1B7A052B0FD0039B5B7A002B28
:1011B00006D00D4B1B681A460C49029800F079FCCA
:1011C0000B49029800F075FC07E09DF80730002BF2
:1011D00003D00749029800F06CFC029800F051FC23
:1011E00000BF05B05DF804FB204000201CBB0000E0
:1011F0002CBB000030B58BB007900691059204938C
:101200000E9B1B7B8DF827300E9B00221A730E99C4
:101210000498FFF767FF059B062B7FD801A252F8C1
:1012200023F000BF411200004B1200005B120000CF
:101230006F1200008D120000B5120000E5120000D0
:1012400007990E9800F035FC69E0069B1B681A466A
:1012500007990E9800F02DFC61E0069B1A68069B2A
:1012600004331B6807990E9800F023FC57E0069B97
:101270001A68069B04331968069B08331B680093A1
:101280000B4607990E9800F014FC48E0069B19687D
:10129000069B04331868069B08331B68069A0C32B9
:1012A00012680192009303460A4607990E9800F0CF
:1012B00000FC34E0069B1868069B04331C68069B00
:1012C00008331B68069A0C321268069910310968B7
:1012D0000291019200932346024607990E9800F06E
:1012E000E8FB1CE0069B1C68069B04331D68069BFC
:1012F00008331B68069A0C32126806991031096887
:1013000006981430006803900291019200932B46D6
:10131000224607990E9800F0CCFB00E000BF0022A7
:101320000E990498FFF736FF0E9B9DF827201A733D
:1013300000BF0BB030BD00BF00B587B00390029175
:1013400001920093029B082B62D8009B1B7B8DF8B7
:101350001330009B00221A7300990198FFF7C2FE18
:101360000023059314E0059A029B9A4209D2039A3E
:10137000059B13441B781A462749009800F099FBF7
:1013800003E02649009800F094FB059B0133059388
:10139000059B072BE7D92249009800F08AFB002320
:1013A000059328E0059A029B9A421DD2039A059B59
:1013B00013441B788DF812309DF812307E2B0CD818
:1013C0009DF812300133174A13441B7803F097033A
:1013D000002B02D09DF8123000E02E231A4612494D
:1013E000009800F066FB03E01049009800F061FBF4
:1013F000059B01330593059B072BD3D90122009947
:101400000198FFF7C7FE009B9DF813201A7300E0B8
:1014100000BF07B05DF804FB30BB000038BB000024
:101420003CBB000064C5000040BB000044BB0000A2
:1014300000B587B001900023039300230493019B20
:10144000059303AB1A46002144F2010000F018F89E
:1014500000BF07B05DF804FBBFF34F8F00BF064B22
:10146000DB6803F4E0620449044B1343CB60BFF331
:101470004F8F00BF00BFFDE700ED00E00400FA055C
:1014800000B585B003900291019272B600BFFFF7DC
:1014900003FE00BFFFF7B6FB0346002BFAD10F4A4D
:1014A0000F4BD31ADB081B0443F001030D49184608
:1014B000FFF78CFB0C4B1B6803F00103002B00D0E3
:1014C00000BE064A064BD31ADB081B0443F0020396
:1014D00006491846FFF77AFBFFF7BEFF3CC700003E
:1014E0000CC7000048BB0000F0ED00E054BB00005A
:1014F00084B00190019B9B680393019BDA68039B76
:10150000D31A184604B0704782B001900B468DF88C
:101510000330019B1A68019BDB68019989880B40A5
:1015200013449DF803201A70019BDB685A1C019B31
:10153000DA6000BF02B0704784B003900B4601929E
:10154000ADF80A30039B1A68039B9968BDF80A300E
:101550000B44039989880B4013441A78019B1A7035
:1015600000BF04B0704700B583B001900091009AAD
:1015700000210198FFF7E0FF019B9B685A1C019B2B
:101580009A6000BF03B05DF804FB00B583B0019022
:101590000B468DF803300198FFF7AAFF0246019B26
:1015A0009B889A4207D89DF8033019460198FFF7A7
:1015B000ABFF002300E00423184603B05DF804FBF2
:1015C00000B583B0019000910198FFF791FF0346A9
:1015D000002B05D000990198FFF7C5FF002300E01C
:1015E0000523184603B05DF804FB000000B587B082
:1015F0000390029113468DF8073000230593039B57
:101600001B781A46114B9B5C002B09D0039B0433BB
:101610009DF807200299184601F0D8FE05900FE0CA
:10162000039B1B781A46094B9B5C002B08D1039B3C
:101630000C339DF807200299184601F095FC05909F
:10164000059B184607B05DF804FB00BFBC66002090
:1016500000B585B0019000238DF80F30019B1B78F9
:101660001A46114B9B5C002B08D0019B0433184693
:1016700001F042FF03468DF80F300EE0019B1B780E
:101680001A46094B9B5C002B07D1019B0C33184673
:1016900001F0D6FC03468DF80F309DF80F30184648
:1016A00005B05DF804FB00BFBC66002000B587B044
:1016B0000390029113468DF8073000230593039B96
:1016C0001B781A46114B9B5C002B09D0039B0433FB
:1016D0009DF807200299184601F026FF05900FE0BB
:1016E000039B1B781A46094B9B5C002B08D1039B7C
:1016F0000C339DF807200299184601F0F9FC05907B
:10170000059B184607B05DF804FB00BFBC660020CF
:1017100000B587B00190114B1B788DF817300199F7
:101720000F48FFF74DFF04909DF81730002B10D0A5
:101730000A4B00221A7001220A490B48FFF7B6FF34
:101740000390039B0293029B002B02D00298FFF7A9
:101750006FFE049B184607B05DF804FB95660020F9
:1017600098660020946600204440002000B585B0B3
:1017700003468DF807309DF8073019461048FFF7EB
:1017800004FF0390039B002B15D10E48FFF760FF69
:10179000034683F00103DBB2002B0CD00A49084852
:1017A000FFF70EFF0346002B05D10122064905482D
:1017B000FFF71CFF0390039B184605B05DF804FB80
:1017C000A8660020444000209066002072B600BF4A
:1017D000034B1B680133024A136000BF704700BF10
:1017E000B8660020064B1B68013B054A1360044B9A
:1017F0001B68002B01D162B600BF00BF704700BF5D
:10180000B866002000B583B00190FFF7DFFF00BF8E
:1018100003B05DF804FB00B583B003468DF80730D4
:10182000FFF7E0FF00BF03B05DF804FB10B487B022
:1018300001900091019B009A53E8004F104643E845
:10184000000191F0000FF7D1059404900391059BDE
:10185000184607B05DF8044B704710B487B001908C
:101860000091019B009A53E8004F44EA020043E8CC
:10187000000191F0000FF6D1059404900391049BB0
:10188000184607B05DF8044B704710B487B001905C
:101890000091019B009A53E8004F04EA020043E8DC
:1018A000000191F0000FF6D1059404900391059B7F
:1018B000184607B05DF8044B704710B487B001902C
:1018C0000091019B009A53E8004F04EB020043E8AB
:1018D000000191F0000FF6D1059404900391049B50
:1018E000184607B05DF8044B704710B487B00190FC
:1018F0000091019B009A53E8004FA4EB020043E8DB
:10190000000191F0000FF6D1059404900391049B1F
:10191000184607B05DF8044B704700B583B00190DE
:1019200001210198FFF799FF0346184603B05DF8BF
:1019300004FB00B583B0019000210198FFF7A5FFDB
:101940000346184603B05DF804FB82B001900B46D5
:101950008DF80330019BDA689DF803300199098AFC
:1019600001FB03F31344184602B0704782B00190A4
:101970000091009B019AD2689B1A019A128AB3FBCC
:10198000F2F3DBB2184602B0704784B00190019BBD
:10199000002B01D10E2320E0019B9A68019B5B681C
:1019A000D31A8DF80F30019B1B68019A52681A6098
:1019B00007E0019B1A681368591C11609DF80F20FD
:1019C0001A709DF80F305A1E8DF80F20002BF0D1A1
:1019D000019B1B6800221A710023184604B070474F
:1019E00000B585B00190002303930020FFF70AFFA4
:1019F000019B1B681A68019B5B689A421FD9019B77
:101A00001B681A68013A1A601B681B78194601980E
:101A1000FFF79BFF0390019B9A68019B1B681B6863
:101A2000D31A8DF80B30019B1B681B799DF80B2096
:101A30009A4204D9019B1B689DF80B201A71002063
:101A4000FFF7E9FE039B184605B05DF804FB10B5EF
:101A500084B001900091009B03930020FFF7D2FE19
:101A6000019B1B681C68621C1A6003990198FFF7B0
:101A70007DFF034623700020FFF7CDFE00BF04B0BA
:101A800010BD00B583B00190019B9B68002B0CD06A
:101A9000019B5B69019A1069019A1168019A926829
:101AA0009847019B00229A6000E000BF03B05DF8F8
:101AB00004FB0EB400B584B00190059B002B0AD046
:101AC0000023039306AB039303AB1A4605990198D1
:101AD00000F0B4F900E000BF04B05DF804EB03B01F
:101AE000704700B583B001900B468DF803309DF828
:101AF00003300A2B03D10D210198FFF7F2FF019B60
:101B00001A68019B9B68581C0199886013449DF8D2
:101B100003201A70019B9A68019B5B689A4202D36A
:101B20000198FFF7AEFF00BF03B05DF804FB00B5FE
:101B300087B0039002910192009300230593009BCC
:101B400003F00103002B24D00BE0029B013302932E
:101B5000059B013305939DF8133019460398FFF751
:101B6000C0FF029B1B788DF813309DF81330002BBB
:101B7000EBD106E0019B013B019320210398FFF785
:101B8000B0FF019A059B9A422ED9019B002BF1D1FF
:101B90002AE0029B002B0BD0029808F031F8059048
:101BA00006E0019B013B019320210398FFF799FF79
:101BB000019A059B9A420FD9019B002BF1D10BE0B2
:101BC000029B01330293059B013305939DF813306B
:101BD00019460398FFF785FF029B1B788DF8133099
:101BE0009DF81330002BEBD100BF07B05DF804FB6C
:101BF00000B589B00390029101920093029B079374
:101C00000123069307E0079A019BB2FBF3F30793C6
:101C1000069B01330693079A019B9A42F3D2009ADE
:101C2000069B9A4201D9009B06930B9B03F001038C
:101C3000002B22D10A9B002B1FD00B9B03F0020329
:101C4000002B06D0009B002B03D130238DF81730DA
:101C500002E020238DF8173008E00A9B013B0A932D
:101C60009DF8173019460398FFF73BFF0A9B002B9E
:101C700003D0069A0A9B9A42EFD301230793009B55
:101C8000012B03D9009B013B009309E0029A079BBB
:101C9000B2FBF3F30493049A019B9A4200D205E04D
:101CA000079B019A02FB03F30793E8E7029A079B5D
:101CB000B2FBF3F30493049B079A02FB03F3029A2B
:101CC000D31A0293154A049B13441B7819460398B0
:101CD000FFF707FF079A019BB2FBF3F30793079BFC
:101CE000002BE3D10B9B03F00103002B11D00A9BC7
:101CF000002B0ED006E00A9B013B0A93202103989B
:101D0000FFF7EFFE0A9B002B03D0069A0A9B9A422C
:101D1000F1D300BF09B05DF804FB00BF64BB000055
:101D200000B589B00590049103920293049B002BA7
:101D3000B8BF5B4206930123079307E0039B069A13
:101D400092FBF3F30693079B01330793039B069AD9
:101D50009A42F3DA029A079B9A4201D9029B0793AF
:101D60000A9B002B0AD0049B002B04DB0B9B03F087
:101D70000403002B02D00A9B013B0A930B9B03F048
:101D80000203002B02D0029B002B16D00B9B03F00A
:101D90000103002B11D10A9B002B0ED006E00A9BF9
:101DA000013B0A9320210598FFF79BFE0A9B002B1D
:101DB00003D0079A0A9B9A42F1D3049B002B07DABF
:101DC000049B5B4204932D210598FFF78AFE08E0EF
:101DD0000B9B03F00403002B03D02B210598FFF786
:101DE00080FE0B9B03F00203002B19D00B9B03F02A
:101DF0000103002B14D1029B002B11D10A9B002B55
:101E00000ED006E00A9B013B0A9330210598FFF7AC
:101E100068FE0A9B002B03D0079A0A9B9A42F1D3D3
:101E200004990B9B01930A9B0093029B039A0598CC
:101E3000FFF7DEFE00BF09B05DF804FB00B58FB010
:101E4000059004910392049B002B00F09181049B68
:101E50001B788DF83730049B013304939DF837309D
:101E6000002B00F07C819DF83730252B40F06B81F2
:101E700000230A9301230C93049B1B788DF83730C1
:101E80009DF83730302B0DD0302B1BDC2B2B11D095
:101E90002D2B17D10A9B43F001030A93049B0133B6
:101EA000049312E00A9B43F002030A93049B01335C
:101EB00004930AE00A9B43F004030A93049B013352
:101EC000049302E000230C9300BF0C9B002BD3D1A2
:101ED000002309939DF837302A2B0CD1039B1B68F4
:101EE000191D039A11601B68099A13440993049BF6
:101EF000013304931AE0049B1B788DF837309DF86A
:101F000037302F2B12D99DF83730392B0ED8049B40
:101F100001330493099A13469B0013445B001A464D
:101F20009DF837301344303B0993D3E700230B93DC
:101F3000049B1B788DF837309DF837302E2B1DD140
:101F4000049B01330493049B1B788DF837309DF874
:101F500037302F2B12D99DF83730392B0ED8049BF0
:101F6000013304930B9A13469B0013445B001A46FB
:101F70009DF837301344303B0B93E4E7049B1B7808
:101F80008DF837309DF837306C2B03D09DF8373003
:101F9000682B07D1049B01330493049B1B788DF8B5
:101FA0003730EFE79DF83730252B00F0C280252B26
:101FB000C0F2C480782B00F3C180582BC0F2BE80E1
:101FC000583B202B00F2BA8001A252F823F000BF48
:101FD000BF2000003D2100003D2100003D21000008
:101FE0003D2100003D2100003D2100003D21000079
:101FF0003D2100003D2100003D2100005520000052
:10200000772000003D2100003D2100003D2100001F
:102010003D210000772000003D2100003D2100000F
:102020003D2100003D2100003D2100003D21000038
:10203000FF2000003D2100003D210000E3200000C2
:102040003D2100009B2000003D2100003D210000BB
:10205000BF200000039B1B68191D039A11601B68B9
:102060000C930C9B8DF81F309DF81F301946059876
:10207000FFF737FD63E0039B1B68191D039A11608E
:102080001B680C930A9B0193099B00930B9B0A22EC
:102090000C990598FFF744FE51E0039B1B68191D3E
:1020A000039A11601B680C930C990A9B0193099B7E
:1020B00000930B9B0A220598FFF79AFD3FE0039BD4
:1020C0001B68191D039A11601B680C930C990A9BDD
:1020D0000193099B00930B9B10220598FFF788FD45
:1020E0002DE0039B1B68191D039A11601B68089360
:1020F0000A9B099A08990598FFF719FD1FE0039BB1
:102100001B68191D039A11601B680C9330210598F8
:10211000FFF7E7FC78210598FFF7E3FC0C99002313
:10212000019308230093082310220598FFF760FD10
:1021300005E025210598FFF7D4FC00E000BF049BD3
:102140000133049305E09DF8373019460598FFF7F1
:10215000C8FC049B1B78002B7FF479AE00E000BF25
:10216000059B1B7B002B04D00598FFF78AFC00E041
:1021700000BF0FB05DF804FB00B583B0019001987B
:10218000FFF703FC0346184603B05DF804FB00B5F7
:102190008BB001900091019B1B8A043B0793009A2E
:1021A000079B1344DA1C079BB2FBF3F38DF81B303B
:1021B0000198FFF715FC0590059B002B01D100232A
:1021C00038E0059B00221A71059B01225A71079B7A
:1021D0009AB2059BDA80059B09939DF81B30013B61
:1021E0000493099B019A1A60002308931DE001984B
:1021F000FFF7F6FB0390039B002B0ED0059B5B794A
:102200000133DAB2059B5A71099B039A1A60039B4A
:10221000019A1A60039B099304E0059800F00EF8F8
:10222000002307E0089B01330893089A049B9A4215
:10223000DDD3059B18460BB05DF804FB00B58BB0F1
:102240000190019B0793079B5B798DF81B30019BE5
:1022500008939DF81B30013B05930023099305E08B
:10226000089B1B680893099B01330993099A059BF6
:102270009A42F5D3089B1B680493019B08930023A3
:1022800009930BE0089B1B68039308990498FFF7D8
:10229000DEFB039B0893099B013309939DF81B30D8
:1022A000099A9A42EED300BF00BF0BB05DF804FB61
:1022B00000B585B00190019B0393039B043301217A
:1022C0001846FFF7FAFA00BF05B05DF804FB00B549
:1022D00087B00190019B0593059B043301211846AB
:1022E000FFF703FB0346039303AB0493049B1B78A4
:1022F000002B02D10198FFF7A1FF00BF07B05DF8E6
:1023000004FB00B591B00390029101920093039BEE
:102310000993039B0F93099BDB881A46099B5B7902
:1023200002FB03F3043B0893099BDB880793009BA4
:102330001A1D079BB2FBF3F30E93009B0433079A1D
:10234000B3FBF2F2079901FB02F29B1A0D93019B7A
:102350001A68009B1344089A9A4203D2089A009B79
:10236000D31A01E0019B1B680C93019B0C9A1A6025
:1023700005E00F9B1B680F930E9B013B0E930E9B7A
:10238000002BF6D100230B93079A0D9BD31A0A93C7
:102390000A9A0C9B934228BF13460A932AE0029A9A
:1023A0000B9B134406930F9A0D9B13440433059320
:1023B0009DF84830002B05D00A9A0599069807F039
:1023C00091FA04E00A9A0699059807F08BFA00231F
:1023D0000D930F9B1B680F930C9A0A9BD31A0C93B7
:1023E0000B9A0A9B13440B93079A0C9B934228BFAA
:1023F00013460A930C9B002BD1D100BF00BF11B034
:102400005DF804FB00B589B0059004910392029336
:10241000039B079307AA00230093029B0499059846
:10242000FFF76FFF00BF09B05DF804FB00B589B08E
:102430000590049103920293039B079307AA01233B
:102440000093029B04990598FFF75BFF00BF09B05A
:102450005DF804FB82B00190019B9B6800229A60AA
:10246000019B9B6800221A61019B9B6800225A61B4
:10247000019B9B680022DA60019B9B6800225A60E6
:10248000019B9B6800221A6000BF02B0704700B534
:1024900087B00390029101920023059309E0029B0B
:1024A0005A1C02921B781846FFF760F9059B01330E
:1024B0000593059A019B9A42F1DB019B184607B0F0
:1024C0005DF804FB00B585B003900291019200BF56
:1024D0000298FFF71DF90346052BF9D00123184692
:1024E00005B05DF804FB000008B5024B1B68984777
:1024F00000BF08BDC066002082B00190019B044A65
:10250000934201D1034B00E00023184602B070470C
:1025100000200040C066002000B587B00190009107
:102520000198FFF7E9FF0390039B002B1ED00023C7
:102530008DF817300020FFF765F9039B1B79002BFE
:1025400003D001238DF8173005E0039B009A1A6031
:10255000039B01221A710020FFF75DF99DF81730E7
:10256000002B03D011230493049B02E00023049367
:10257000049B184607B05DF804FB000082B00346D8
:102580008DF807309DF90730002B0CDB9DF80730E4
:1025900003F01F0205499DF907305B09012000FA8D
:1025A00002F241F8232000BF02B0704700E100E0D2
:1025B00082B0034600918DF807309DF90730002B5B
:1025C0000ADB009BDAB20C499DF907305201D2B206
:1025D0000B4483F800230BE0009BDAB207499DF817
:1025E000073003F00F03043B5201D2B20B441A76BA
:1025F00000BF02B0704700BF00E100E000ED00E066
:1026000082B00190019B03F06043B3F1005F0CBF07
:1026100001230023DBB2184602B0704782B001905C
:10262000019B1B0B5BB2184602B0704700B583B02C
:1026300003460A468DF8073013468DF806309DF89C
:1026400006209DF9073011461846FFF7B1FF00BF7D
:1026500003B05DF804FB00B583B003468DF8073086
:102660009DF907301846FFF789FF00BF03B05DF8FA
:1026700004FB82B001900B468DF803309DF80330C7
:10268000019A134401221A6000BF02B0704784B05F
:1026900001900B46ADF80230BDF80230019A1344A8
:1026A00000221A60BDF80230019A13441B6803939C
:1026B000039B00BF04B0704782B001900B46ADF899
:1026C0000230BDF80230019A13441B68002B14BF7E
:1026D00001230023DBB2184602B0704782B001909C
:1026E0000091019B009AC3F8042300BF02B0704719
:1026F00082B001900091019B009AC3F8082300BFAB
:1027000002B0704782B00190019B0722C3F80025F8
:1027100000BF02B0704784B0039002910192009311
:10272000039B029AC3F80825039B019AC3F80C2562
:10273000039B009AC3F8102500BF04B0704782B015
:1027400001900091009A019BC3F8242500BF02B0BC
:10275000704784B0039002910192029A039BC3F8E0
:102760004425039B019AC3F8482500BF04B0704775
:1027700084B0039002910192029A039BC3F834251E
:10278000039B019AC3F8382500BF04B0704784B09A
:1027900001900B468DF8033013468DF802309DF8FA
:1027A0000230002B14BF01230023DBB203939DF8FA
:1027B0000330032B10D0032B13DC012B02D0022B90
:1027C00005D00EE0039B43F0020303930AE0039B52
:1027D00043F00403039305E0039B43F006030393D4
:1027E00000E000BF019B039AC3F8542500BF04B06A
:1027F000704782B001900B468DF803309DF803209E
:10280000019BC3F8C02500BF02B0704782B00190A1
:10281000019B0122C3F8502500BF02B0704782B06F
:102820000190019B0022C3F8502500BF02B0704701
:1028300082B00190019B0122C3F8402500BF02B085
:10284000704782B00190019B0022C3F8402500BF71
:1028500002B0704782B00190019B1B681F2B02D809
:102860004FF0A04306E0019B1B6803F01F02019B91
:102870001A60024B184602B0704700BF00030050B8
:1028800000B585B00190084611461A4603468DF8FA
:1028900003300B468DF8023013468DF8013001AB42
:1028A0001846FFF7D7FF03909DF803209DF80230EC
:1028B0005B001A439DF801309B001A439DF81830C5
:1028C0001B0242EA03019DF81C301B04019A1943C4
:1028D000039B02F5E07243F8221000BF05B05DF8DB
:1028E00004FB00B585B003900023019300230093FF
:1028F0000023012201210398FFF7C2FF00BF05B0AA
:102900005DF804FB00B585B003900B468DF80B30E5
:102910009DF80B300022019200220092002200213B
:102920000398FFF7ADFF00BF05B05DF804FB00B5ED
:1029300085B0019001AB1846FFF78CFF0390019B17
:10294000012202FA03F31946039800F018F800BFB9
:1029500005B05DF804FB00B585B0019001AB1846E9
:10296000FFF778FF0390019B012202FA03F3194657
:10297000039800F00EF800BF05B05DF804FB82B0CC
:1029800001900091019B009AC3F8082500BF02B096
:10299000704782B001900091019B009AC3F80C250A
:1029A00000BF02B07047000000B58DB005900491E3
:1029B00003920293059B1B791A461346DB001344CE
:1029C0009B00664A13440A930A9B1B7F002B03D08B
:1029D00008230793079BBDE0059B1B680993059B94
:1029E0001A68059B1B7919465D4B53F8213019462F
:1029F0001046FFF791FD0346002B03D011230793E8
:102A0000079BA7E00A9B039A1A600A9B029A5A60E6
:102A1000049B1B7B012B05D8049B1B781846FFF7F2
:102A20009AFF04E0049B1B781846FFF780FF049B85
:102A30001B781846002301930023009300230022F3
:102A40000121FFF71DFF049B5B78FF2B09D0049B3E
:102A50005B780B930B98FFF77EFF0B98FFF741FF16
:102A600002E04FF0FF330B93049B9B78FF2B07D0C2
:102A7000049B9B78089301210898FFF743FF02E02D
:102A80004FF0FF330893049B9A780A9B83F8202029
:102A9000049BDA780A9BDA77049BDB78FF2B17D04C
:102AA000049B1B79002B05D0049BDB781846FFF7AD
:102AB00052FF04E0049BDB781846FFF738FF049BC5
:102AC000DB781846FFF70DFF049B1A790A9B9A776B
:102AD000049B1B781946089B0B9A0998FFF71BFE6D
:102AE000049B9B6819460998FFF729FE049B197BF4
:102AF000049B5B7B1A460998FFF749FE049B9B7970
:102B000019460998FFF775FE0998FFF7FBFD0A9B28
:102B10001B68002B15D0059B1B681846FFF77EFD30
:102B200003461A46049B5B7919461046FFF77EFD63
:102B3000059B1B681846FFF771FD03461846FFF713
:102B40008AFD0A9B00225A770A9B01221A770023EA
:102B50000793079B18460DB05DF804FBC86600207C
:102B600080BB000000B583B00190019BDB7FFF2B91
:102B70000ED0019B9B7F002B05D0019BDB7F18466D
:102B8000FFF7E9FE04E0019BDB7F1846FFF7CFFE6D
:102B9000019B00225A77019B00221A72019B1B683D
:102BA000019A02F10800019A52681146984700BF45
:102BB00003B05DF804FB00B583B001900B468DF8BF
:102BC00003309DF8033083F00103DBB2002B04D007
:102BD00040210198FFF78CFD03E040210198FFF7A9
:102BE0007DFD00BF03B05DF804FB00B583B001902C
:102BF0000091009B03F00103002B03D00198FFF725
:102C000005FE02E00198FFF70AFE009B03F00203B5
:102C1000002B03D00198FFF70BFE02E00198FFF7AD
:102C200010FE00BF03B05DF804FB00B587B0039051
:102C3000029101920093019B1B68002B0AD0019B1B
:102C40001B681846FFF7DCFC034683F00103DBB288
:102C5000002B0ED1019B9B68002B11D0019B9B6820
:102C60001846FFF7CDFC034683F00103DBB2002BCF
:102C700006D0029B00225A7710230593059B54E04F
:102C8000019B1968019B5B681A460398FFF761FD79
:102C9000019B9968019BDB681A460398FFF768FD62
:102CA0004FF48C710398FFF7F2FC00990398FFF73B
:102CB0009CFF009B03F00803002B03D11021039815
:102CC000FFF7D7FC029B1B68002B1FD100BF4FF4FE
:102CD0008C710398FFF7F0FC034683F00103DBB22D
:102CE000002BF4D1029BDB7FFF2B1BD0029B9B7F31
:102CF000002B05D0029BDB7F1846FFF72CFE11E06E
:102D0000029BDB7F1846FFF712FE0BE0009B03F0EF
:102D10000403002B0CBF01230023DBB219460398E8
:102D2000FFF749FF00230593059B184607B05DF8A0
:102D300004FB000010B586B0039002910192039B42
:102D40001B791A461346DB0013449B001F4A1344A9
:102D5000049300230593049B5B7FDBB2002B03D01D
:102D600011230593059B2EE0049B1B68002B07D0C5
:102D7000019B03F01403002B02D1049B01225A771C
:102D8000049B029A03F10C0413460FCB84E80F0056
:102D9000049BDB7FFF2B0ED0049B9B7F002B05D079
:102DA000049BDB7F1846FFF7C2FD04E0049BDB7F3A
:102DB0001846FFF7D0FD039B1868019B029A0499FF
:102DC000FFF733FF0346184606B010BDC866002063
:102DD00000B583B0019000914FF48C710198FFF71A
:102DE0006BFC0346002B07D04FF48C710198FFF762
:102DF0004EFC0098FFF7B6FE00BF03B05DF804FB81
:102E000008B503490348FFF7E3FF00BF08BD00BF53
:102E1000C866002000F0024084B001900B46ADF877
:102E20000230BDF80230019A134400221A60BDF846
:102E30000230019A13441B680393039B00BF04B044
:102E4000704782B001900B46ADF80230BDF80230F9
:102E5000019A13441B68002B14BF01230023DBB22B
:102E6000184602B0704782B001900091019B009A11
:102E7000C3F8042300BF02B0704782B001900091F4
:102E8000019B009AC3F8082300BF02B0704782B0CC
:102E90000190019BD3F81835DBB2184602B0704799
:102EA00082B001900B468DF803309DF80320019B02
:102EB000C3F81C2500BF02B0704782B001900B46DA
:102EC0008DF803309DF80330019A134401221A60F3
:102ED00000BF02B0704700B585B0019000914FF47B
:102EE0008E710198FFF798FF009B9A68009B1B6A00
:102EF00013441B788DF80F30009B1B6A5A1C009BF3
:102F00001A629DF80F3019460198FFF7C9FF00BFFC
:102F100005B05DF804FB00B585B001900091009B01
:102F20005B69039316E0009B93F82830DBB2002B1B
:102F300001D0002314E04FF48E710198FFF781FF58
:102F4000034683F00103DBB2002BECD1009901981A
:102F5000FFF7C1FF009B1B6A039A9A42EBD801233B
:102F6000184605B05DF804FB00B587B003900291E8
:102F70000192039B1B791A462C2302FB03F32F4A71
:102F800013440493039800F05BF80346002B03D02E
:102F900011230593059B4CE0049B019A5A61049B05
:102FA000029A9A60049B00221A62049B002283F812
:102FB000282000230593039B1B684FF48E7118464D
:102FC000FFF72AFF039B1B6808211846FFF775FFD0
:102FD000039B1B6804991846FFF77DFF049B5B6801
:102FE000002B25D1039B1B6804991846FFF793FF1C
:102FF000034683F00103DBB2002B02D00F230593BD
:1030000013E000BF039B1B684FF48E711846FFF757
:1030100018FF034683F00103DBB2002BF2D1039BC0
:103020001B680C211846FFF748FF049B00225A61D9
:10303000059B184607B05DF804FB00BFEC66002056
:1030400082B00190019B1B791946074A2C2301FB92
:1030500003F3134414331B68002B14BF0123002314
:10306000DBB2184602B07047EC66002000B583B0B2
:103070000190019B1B684FF492711846FFF7CCFE3C
:10308000019B1B684FF484711846FFF7C5FE019B36
:103090001B6800211846FFF710FF00BF03B05DF862
:1030A00004FB10B582B001900091009B9B69002B3E
:1030B00008D14FF484710198FFF7AEFE0198FFF735
:1030C000E6FE13E04FF484710198FFF7A5FE009B24
:1030D000DA68009B5B6AD4180198FFF7D8FE0346B4
:1030E0002370009B5B6A5A1C009B5A6202B010BDA1
:1030F00000B589B0039002910192039B1B791A4697
:103100002C2302FB03F36E4A1344059300238DF82E
:103110001330059B5B68002B06D0039B1B684FF4A4
:1031200001711846FFF7A9FE059B9B69002B15D07E
:10313000059BDB69002B0ED0059B5B68002B06D03E
:10314000039B1B684FF401711846FFF78CFE112397
:103150000793079BB0E001238DF813309DF81330DF
:1031600083F00103DBB2002B0CD0059B019A9A611E
:10317000059B029ADA60059B00225A62059B002299
:10318000DA6105E0059B029A1A61059B019ADA61F2
:10319000059B93F8293083F00103DBB2002B09D0A3
:1031A0009DF8133083F00103DBB2002B02D00398AB
:1031B000FFF75CFF059B5B68002B73D1039B1B68CB
:1031C0004FF4A2711846FFF727FE039B1B684FF4CC
:1031D00092711846FFF735FE03468DF81930039BB0
:1031E0001B684FF484711846FFF72BFE03468DF8D9
:1031F0001B30039B1B684FF4A2711846FFF721FE9A
:1032000003468DF81A309DF81B3083F00103DBB2C2
:10321000002B0DD09DF81A3083F00103DBB2002B98
:1032200006D09DF8193083F00103DBB2002BCCD11E
:103230009DF81930002B0FD19DF81A30002B0BD1BF
:10324000039B1B6805991846FFF72BFF059B9A699E
:10325000059B5B6A9A42B8D8059B00229A619DF84B
:103260001930002B03D003230793079B24E09DF81C
:103270001A30002B03D00F230793079B1CE0059BFC
:1032800093F82930002B06D0039B1B6800211846B9
:10329000FFF713FE0DE0039B1B6804211846FFF7A0
:1032A0000CFE06E0039B1B684FF401711846FFF704
:1032B000DAFD00230793079B184609B05DF804FB6D
:1032C000EC66002082B00190019B03F06043B3F1F3
:1032D000005F0CBF01230023DBB2184602B0704729
:1032E00084B001900B46ADF80230BDF80230019A6F
:1032F000134400221A60BDF80230019A13441B687F
:103300000393039B00BF04B0704782B001900B464B
:10331000ADF80230BDF80230019A13441B68002B4F
:1033200014BF01230023DBB2184602B0704782B0FD
:1033300001900091019BD3F80022009B1A43019B4E
:10334000C3F8002200BF02B0704782B00190009124
:10335000019B009AC3F8042300BF02B0704782B0FB
:1033600001900091019B009AC3F8082300BF02B0AE
:10337000704782B001900B468DF803309DF8033002
:10338000019A134401221A6000BF02B0704784B052
:10339000039002910192029A039BC3F84425039B78
:1033A000019AC3F8482500BF04B0704784B0039069
:1033B00002910192029A039BC3F83425039B019A60
:1033C000C3F8382500BF04B07047000000B589B0CD
:1033D000039002910192039B1B791A461346DB006E
:1033E00013449B00434A134405930298FFF76AFF76
:1033F000034683F00103DBB2002B03D010230793B5
:10340000079B73E0039800F077F80346002B03D086
:1034100011230793079B69E0059B019A5A61059B5D
:10342000029A9A6000230793039B1B684FF49071E4
:103430001846FFF755FF039B1B684FF4AC71184605
:10344000FFF74EFF039B1868059B9968059B5B6916
:103450001A46FFF79CFF039B1B6808211846FFF7DD
:1034600088FF059B5B68002B3FD1039B1B684FF4D3
:1034700090711846FFF749FF03468DF81A30039BF9
:103480001B684FF4AC711846FFF73FFF03468DF8F9
:103490001B309DF81A3083F00103DBB2002B06D0FD
:1034A0009DF81B3083F00103DBB2002BDDD19DF8CA
:1034B0001B30002B02D00F23079313E0039B1B68E4
:1034C0000C211846FFF755FF00BF039B1B684FF404
:1034D000AC711846FFF719FF034683F00103DBB216
:1034E000002BF2D1059B00225A61079B184609B0B8
:1034F0005DF804FB1867002082B00190019B1B79E6
:103500001946084A0B46DB000B449B001344143356
:103510001B68002B14BF01230023DBB2184602B046
:10352000704700BF1867002000B58BB00390029170
:103530000192039B1B791A461346DB0013449B0040
:103540006F4A134406930298FFF7BCFE034683F0CC
:103550000103DBB2002B03D010230893089BCAE0C1
:1035600000238DF81F30069B5B68002B06D0039B61
:103570001B684FF404711846FFF7F1FE069B9B6928
:10358000002B15D0069BDB69002B0ED0069B5B68D9
:10359000002B06D0039B1B684FF404711846FFF7FD
:1035A000D4FE11230893089BA5E001238DF81F305A
:1035B0009DF81F3083F00103DBB2002B09D0069B7E
:1035C000019A9A61069B029ADA60069B0022DA61F0
:1035D00005E0069B029A1A61069B019ADA610023B4
:1035E0000893039B1B684FF488711846FFF778FE19
:1035F000039B1B684FF4A2711846FFF771FE039BF3
:103600001B68019A02991846FFF7D0FE9DF81F30FB
:1036100083F00103DBB2002B06D0039B1B68002163
:103620001846FFF7A6FE05E0039B1B6820211846FD
:10363000FFF77DFE039B1B791946314A0B46DB00E1
:103640000B449B00134404331B68002B4BD1039B9A
:103650001B684FF488711846FFF757FE03468DF834
:103660002730039B1B684FF4A2711846FFF74DFEED
:1036700003468DF81730039B1B684FF49271184670
:10368000FFF743FE03468DF816309DF8273083F090
:103690000103DBB2002B0DD09DF8173083F001033E
:1036A000DBB2002B06D09DF8163083F00103DBB2AD
:1036B000002BCCD1039B1B791946114A0B46DB002A
:1036C0000B449B001344183300221A609DF81630F7
:1036D000002B01D0032308939DF81730002B09D04D
:1036E0000F23089306E0039B1B684FF404711846F0
:1036F000FFF72BFE089B18460BB05DF804FB00BFDC
:103700001867002000B583B01F4B0193019B022274
:103710001A61019B02225A61019B1C4A9A61019B1A
:103720001B4ADA61019B4FF400721A62019B00226E
:103730009A62019B00225A62019B0022DA62019B7D
:10374000124A9A64019B134ADA64019B10221A659B
:10375000019B00229A65019B00225A65019B002271
:10376000DA65019B07330C49184606F0D7F9019B2F
:103770000A49184606F0D2F9019B20229A7100BF2F
:1037800003B05DF804FB00BF3C67002094BB000061
:10379000B4670020B4690020A0BB0000A4BB0000F7
:1037A00000B589B003900291019200230693039B18
:1037B000DB680593039B1B690493049A059B9A425B
:1037C00005D9049A059BD31A013B079307E0039B95
:1037D0009A680499059BCB1A1344013B0793039BFA
:1037E0009A68059BD31A079A934228BF13460793FA
:1037F000079A019B934228BF13460793039B5A687D
:10380000059B1344079A0299184606F06BF8069A2E
:10381000079B13440693029A079B13440293019A51
:10382000079BD31A0193059A079B13440593039BA7
:103830009B68059A9A4201D100230593039B059A40
:10384000DA60019B002BB5D1069B184609B05DF8E4
:1038500004FB00B589B0039002910192039BDB68E1
:103860000793039B9A68079BD31A0693069A019BBA
:103870009A420ED9039B5A68079B1344019A0299F6
:10388000184606F02FF8079A019B1A44039BDA604A
:103890001AE0069B0593039B5A68079B1344059AFD
:1038A0000299184606F01EF8019A069BD31A059352
:1038B000039B5868029A069B1344059A194606F022
:1038C00011F8039B059ADA6000BF09B05DF804FBAC
:1038D00086B00190019B1B690493019BDB680393F5
:1038E000049A039B9A4208D8019B9A68039BD21AB8
:1038F000049B1344013B059304E0049A039BD31AF1
:10390000013B0593059B184606B0704700B589B08A
:10391000039002910192029B0693039B5A1C13464B
:103920005B001344DB00204A13440593059B5B694D
:10393000022B29D0022B2ED8002B02D0012B13D022
:1039400029E00598FFF7C4FF0490049A019B9A426E
:1039500002D20023079321E0019B0793019A069965
:103960000598FFF776FF19E00598FFF7B1FF04907F
:10397000019A049B934228BF13460793079A06991E
:103980000598FFF766FF09E0019A06990598FFF789
:1039900007FF079002E00023079300BF079B18462C
:1039A00009B05DF804FB00BF3C67002000B587B09C
:1039B0000390029101920B4B1B78002B01D1FFF772
:1039C000A1FE0020FDF71EFF019A02990398FFF760
:1039D0009DFF05900020FDF71EFF059B184607B0D0
:1039E0005DF804FB3C67002000B585B001900091B4
:1039F000009806F005F90390039A00990198FFF7E3
:103A0000D5FF0346184605B05DF804FB08B5FFF77F
:103A100079FE00BF08BD000000B585B00190019B94
:103A2000002B0AD0074B43F001030393019B9B013A
:103A30000293039B0298984700E000BF05B05DF831
:103A400004FB00BFE0BD000082B00190019B1B6839
:103A50001F2B02D84FF0A04306E0019B1B6803F028
:103A60001F02019B1A60024B184602B0704700BF4C
:103A70000003005000B585B00190084611461A4673
:103A800003468DF803300B468DF8023013468DF84F
:103A9000013001AB1846FFF7D7FF03909DF80320D4
:103AA0009DF802305B001A439DF801309B001A43D9
:103AB0009DF818301B0242EA03019DF81C301B04DC
:103AC000019A1943039B02F5E07243F8221000BFEC
:103AD00005B05DF804FB00B585B0039000230193A9
:103AE000002300930023012201210398FFF7C2FF66
:103AF00000BF05B05DF804FB00B585B0019001ABD7
:103B00001846FFF7A1FF0390019B012202FA03F37D
:103B10001946039800F004F800BF05B05DF804FBF7
:103B200082B001900091019B009AC3F8082500BF64
:103B300002B0704700B583B00190019B002B0AD002
:103B40004FF47A70FFF768FF019B013B0193019BE3
:103B5000002BF5D100E000BF03B05DF804FB0123AA
:103B60001846704701231846704700B583B001908E
:103B70000091019802F0E0F800BF03B05DF804FB8B
:103B800000B583B000F07CFD0190019B852B07D030
:103B9000019B0093009B002B02D00098FDF748FC8E
:103BA000002000F0CBFD00BF03B05DF804FB00B5C2
:103BB00083B000210020FCF74DFD0190019B002BFC
:103BC00002D00198FDF734FCFCF7E2FC00BF03B023
:103BD0005DF804FB10B586B01A4B01AC0FCB84E83E
:103BE0000F001120FFF777FF1120FFF785FF2F232C
:103BF0008DF804302D238DF805302E238DF80630F6
:103C0000FF238DF807304FF08053039300238DF886
:103C1000103000238DF811302C20FFF75CFF2C2092
:103C2000FFF76AFF01A9002300220748FEF7BCFE48
:103C30000590059B002B02D00598FDF7F9FB00BF0E
:103C400006B010BDB4BB0000ACBB000070B592B0B4
:103C5000884B4FF4FC621A60864B40F2E1725A6066
:103C6000844B40F2E9729A60824B4FF4FD62DA6055
:103C700002228049804804F037FA7F497F4804F0E7
:103C8000D5FA40F2E97240F2E1717D4804F075F92D
:103C90007B497C4804F0BDFA7A4A78497A4804F0B6
:103CA000B5FB0FA82C23794A794905F097FC0FAB97
:103CB0001946784805F07EF8012300930323AC22CF
:103CC0000021744805F0EDF903461A46724B1A605C
:103CD00040F22133099308238DF8283002238DF810
:103CE000293050238DF82A3003238DF82B30A5235B
:103CF0008DF82C305A238DF82D3000238DF82E307E
:103D000000238DF82F3000238DF83030624B1B6874
:103D1000002B3BD109AB19465E4805F0C1FA0346BA
:103D20001A465E4B1A600A20FFF704FF05AB1946DE
:103D3000584805F031FA03461A46594B1A60584B59
:103D40001B68002B22D1059B564A13609DF8193041
:103D50001A069DF81A301B041A439DF81B301B02EB
:103D600013439DF81C2013434F4A13609DF81D30E8
:103D70001A069DF81E301B041A439DF81F301B02C3
:103D800013439DF820201343484A136000230093F7
:103D90000323AC2200213F4805F083F903468DF848
:103DA00047309DF84730424A13600DAB19463948F9
:103DB00005F0E0F89DF837301A463E4B1A609DF842
:103DC00038301A463C4B1A609DF839301A463B4B46
:103DD0001A609DF834301A46394B1A609DF8353018
:103DE0001A46384B1A609DF836301A46364B1A6020
:103DF0009DF84730002B22D09DF847109DF83730B2
:103E00001D469DF834301E469DF838309DF835200B
:103E10009DF839009DF8364003940290019200937A
:103E200033462A46294804F0E0FCFCF7EBFE034643
:103E300083F00103DBB2002BF7D020BFF5E7154A72
:103E40002349244805F0EAFA0123224A0E49224870
:103E500004F010FE214B204A1A60204B01225A60C8
:103E60001E4B1F4A9A601D4B0022DA6000BF12B041
:103E700070BD00BFC4690020D4690020E86900203B
:103E8000EC690020E86A0020EC6A0020ACBB00006E
:103E9000B46B0020AC6B0020784000207C400020F8
:103EA0008040002084400020884000208C4000207A
:103EB000584000205C40002060400020644000200A
:103EC000684000206C40002070400020C4BB00000F
:103ED000BC6B0020C06B0020786B00209C6B002026
:103EE0006B3B000000B587B04FF47A70FFF722FEFD
:103EF0004FF4FD63019308238DF8083002238DF8F9
:103F0000093050238DF80A3003238DF80B3000233D
:103F10008DF80C3000238DF80D3000238DF80E3015
:103F200000238DF80F3000238DF81030144B1B68E0
:103F30000133134A136001AB1946124805F0B0F97A
:103F400003468DF817309DF817300F4A13609DF81F
:103F50001730002B0AD10D4B1B6801330B4A13603D
:103F60004FF4FD610A4804F040FC05E09DF817306D
:103F70001946084804F039FC00BF07B05DF804FB9F
:103F8000CC6B0020AC6B002074400020D06B002074
:103F900028BC000060BC000000B589B0FFF7F0FD50
:103FA000FFF705FE304804F020FCFFF7D8FD03467C
:103FB00083F00103DBB2002B0CD02C4804F015FC7D
:103FC000FCF720FE034683F00103DBB2002BF7D0A1
:103FD00020BFF5E7FFF7C6FD034683F00103DBB220
:103FE000002B0CD0224804F000FCFCF70BFE03462B
:103FF00083F00103DBB2002BF7D020BFF5E7FFF71A
:10400000E9FDFFF723FE012304931A4B03931A4B98
:1040100002930223019340F2E973009340F2E173AB
:104020004FF4FD624FF4FC61144804F0DEFBFFF72F
:1040300059FF0023019301230093114B4FF4407269
:104040001049114801F0D8FC0346012B01D100238F
:1040500000E004230793079B002B02D00798FDF78D
:10406000E7F901F0E9FEFEE794BC0000C4BC0000E3
:1040700018BD000000127A0090D003006CBD000053
:104080009C6B0020CCBD0000118C0000BFF34F8F53
:1040900000BF064BDB6803F4E0620449044B1343A2
:1040A000CB60BFF34F8F00BF00BFFDE700ED00E026
:1040B0000400FA0582B0164B1B680193154B1B6870
:1040C0000093019B082B1FD1009B052B1AD801A23E
:1040D00052F823F0ED400000F1400000F5400000F0
:1040E000F9400000FD4000000141000001230CE008
:1040F00001230AE0012308E0012306E0012304E094
:10410000012302E0012300E00023184602B07047BB
:10411000300100103401001082B0164B1B6801936F
:10412000154B1B680093019B082B1FD1009B052B8F
:104130001AD801A252F823F0514100005541000065
:10414000594100005D4100006141000065410000EF
:1041500001230CE001230AE0012308E0012306E02B
:10416000012304E0012302E0012300E000231846BC
:1041700002B07047300100103401001082B0164BBD
:104180001B680193154B1B680093019B082B1FD1E3
:10419000009B052B1AD801A252F823F0B54100006C
:1041A000B9410000BD410000C1410000C54100000F
:1041B000C941000001230CE000230AE0002308E0CD
:1041C000002306E0002304E0002302E0002300E0D7
:1041D0000023184602B0704730010010340100106F
:1041E00082B0164B1B680193154B1B680093019B13
:1041F000082B1FD1009B052B1AD801A252F823F0DF
:10420000194200001D42000021420000254200002A
:10421000294200002D42000001230CE000230AE0A7
:10422000002308E0002306E0002304E0002302E06E
:10423000002300E00023184602B070473001001050
:104240003401001082B0164B1B680193154B1B689C
:104250000093019B082B1FD1009B052B1AD801A2AC
:1042600052F823F07D4200008142000085420000A8
:10427000894200008D4200009142000001230CE0C1
:1042800000230AE0002308E0002306E0002304E006
:10429000002302E0002300E00023184602B070472C
:1042A000300100103401001082B0164B1B680193DE
:1042B000154B1B680093019B082B1FD1009B052BFE
:1042C0001AD801A252F823F0E1420000E5420000B2
:1042D000E9420000ED420000F1420000F54200001A
:1042E00001230CE000230AE0002308E0002306E09D
:1042F000002304E0002302E0002300E0002318462E
:1043000002B07047300100103401001082B0164B2B
:104310001B680193154B1B680093019B082B1FD151
:10432000009B052B1AD801A252F823F04543000048
:10433000494300004D430000514300005543000035
:104340005943000001230CE001230AE0012308E0A7
:10435000012306E0012304E0012302E0012300E041
:104360000023184602B070473001001034010010DD
:1043700082B0164B1B680193154B1B680093019B81
:10438000082B1FD1009B052B1AD801A252F823F04D
:10439000A9430000AD430000B1430000B543000055
:1043A000B9430000BD43000000230CE000230AE0F5
:1043B000002308E0002306E0012304E0012302E0DB
:1043C000012300E00023184602B0704730010010BE
:1043D0003401001008B5FFF7CBFF0346002B07D0D0
:1043E0004FF010234FF08042D3F80832C2F858350E
:1043F00000BF08BD00BF044BD3F80034002BFAD037
:1044000000BF00BF704700BF00E0014000B583B0AF
:104410000190054A019BC2F80435FFF7EBFF00BF8E
:1044200003B05DF804FB00BF00E00140024B034A0B
:104430001A6000BF704700BF904000200090D0037A
:1044400008B5FFF737FE0346002B0ED04FF0804330
:104450000022C3F80C214FF080430022C3F8102142
:104460004FF080430022C3F83825FFF755FE03467E
:10447000002B76D04FF08053734AD3F80434C2F83F
:1044800020354FF08053704AD3F80834C2F82435F1
:104490004FF080536C4AD3F80C34C2F828354FF0F3
:1044A0008053694AD3F81034C2F82C354FF080534A
:1044B000654AD3F81434C2F830354FF08053624A5D
:1044C000D3F81834C2F834354FF080535E4AD3F82D
:1044D0001C34C2F840354FF080535B4AD3F8203487
:1044E000C2F844354FF08053574AD3F82434C2F809
:1044F00048354FF08053544AD3F82834C2F84C352D
:104500004FF08053504AD3F82C34C2F850354FF056
:1045100080534D4AD3F83034C2F854354FF08053AD
:10452000494AD3F83434C2F860354FF08053464AD4
:10453000D3F83834C2F864354FF08053424AD3F888
:104540003C34C2F868354FF080533F4AD3F84034CA
:10455000C2F86C354FF080533B4AD3F84434C2F86C
:104560007035FFF70BFE0346002B02D0374B384A5D
:104570001A60FFF735FE0346002B03D0354BFB22B4
:10458000C3F81825FFF75EFE0346002B0AD0324B16
:104590001B6823F00F02314B1B6803F00F032E49F9
:1045A00013430B60FFF780FE0346002B03D02C4B18
:1045B0004FF400721A60FFF7A9FE0346002B0DD0DE
:1045C0004FF08043D3F8003403F00103002B05D0F3
:1045D0004FF080436FF00102C3F80024214BD3F861
:1045E0008830204A43F47003C2F88830BFF34F8FFD
:1045F00000BFBFF36F8F00BFFFF7ECFE4FF010233B
:10460000D3F80032002B05DB4FF01023D3F804322F
:10461000002B15DA0120FFF7F9FE4FF010231222CC
:10462000C3F80022FFF7E6FE4FF010231222C3F872
:104630000422FFF7DFFE0020FFF7E8FEFFF726FD6C
:10464000FFF7F4FE00BF08BD00C000408C560040DC
:104650004881030000F00040E40E004058020010C2
:104660004096024000ED00E0044BD3F80034002BEC
:1046700014BF01230023DBB218467047000001403D
:1046800000B583B000230193144B1B78002B02D09C
:104690008523019314E0114B00229A600F4B0022F6
:1046A0005A600E4B00221A610C4B0022DA600C4853
:1046B00000F0D6F9019000F0EDF9084B01221A70D4
:1046C000FFF7D2FF0346002B02D0044B01229A7061
:1046D000019B184603B05DF804FB00BFD46B0020BB
:1046E0000148000084B001900091019B1B68039376
:1046F00006E0039A009B9A420DD0039B1B6803932C
:10470000039B002BF5D1019B1A68009B1A60019B4B
:10471000009A1A6000E000BF04B0704784B00190B6
:10472000019B1B680393039B002B03D0039B1A6818
:10473000019B1A60039B184604B0704700B583B014
:1047400001901A4B9B78DBB2002B12D0019B002BFF
:1047500003D0019B5B68012098470020FDF752F8C9
:10476000124BDB680133114AD3600020FDF753F888
:1047700017E00020FDF746F8019B002B03D00199BC
:104780000B48FFF7AFFF094BDB68002B01D100F0AE
:1047900089F9064BDB680133044AD3600020FDF73A
:1047A0003AF800BF03B05DF804FB00BFD46B0020F3
:1047B000E46B002000B585B003468DF807309DF806
:1047C0000730002B02D10C4B039301E00B4B0393FA
:1047D0000398FFF7A3FF0290029B002B06D0029BD9
:1047E0005B689DF8072010469847F1E700BF00BFBF
:1047F00005B05DF804FB00BFDC6B0020E46B00201B
:1048000000B583B003468DF807309DF80730002BC4
:1048100005D10A4B01225A700020FFF7CBFF9DF80B
:104820000730012B05D1054B01229A700120FFF7BB
:10483000C1FF00BF03B05DF804FB00BFD46B0020D4
:1048400082B003468DF807309DF90730002B0CDB52
:104850009DF8073003F01F0205499DF907305B09F9
:10486000012000FA02F241F8232000BF02B0704795
:1048700000E100E082B0034600918DF807309DF919
:104880000730002B0ADB009BDAB20C499DF9073098
:104890005201D2B20B4483F800230BE0009BDAB242
:1048A00007499DF8073003F00F03043B5201D2B2D1
:1048B0000B441A7600BF02B0704700BF00E100E071
:1048C00000ED00E082B00190019B1B0B5BB218462B
:1048D00002B0704700B583B003460A468DF8073032
:1048E00013468DF806309DF806209DF907301146D5
:1048F0001846FFF7BFFF00BF03B05DF804FB00B52B
:1049000083B003468DF807309DF907301846FFF74E
:1049100097FF00BF03B05DF804FB000082B00346C0
:104920008DF807300F4A9DF90730002B00DA1F334E
:104930005B115BB252F823209DF90730594203F016
:104940001F0301F01F0158BF4B425BB222FA03F371
:1049500003F00103002B14BF01230023DBB2184630
:1049600002B0704700E100E082B001904FF0804259
:10497000019BC2F8043300BF02B0704782B00190BF
:104980004FF08042019BC2F8083300BF02B070476D
:1049900082B003468DF807309DF8073003F180435D
:1049A00001221A6000BF02B0704784B00346ADF820
:1049B0000630BDF8063003F1804300221A60BDF8CE
:1049C000063003F180431B680393039B00BF04B0D0
:1049D000704782B00346ADF80630BDF8063003F1EB
:1049E00080431B68002B14BF01230023DBB2184651
:1049F00002B0704782B001904FF08042019BC2F834
:104A0000183500BF02B0704700B583B006238DF89B
:104A100007304FF08040FFF755FF03461846FFF779
:104A20007DFF034683F00103DBB2002B13D04FF070
:104A30008040FFF747FF03461A469DF807301946A6
:104A40001046FFF747FF4FF08040FFF73BFF03465C
:104A50001846FFF754FF00BF03B05DF804FB0000E9
:104A600084B0019000230393094B1B79002B02D0E3
:104A70008523039308E0064A019B1360044B01223F
:104A80001A71034B00225A71039B184604B07047F9
:104A9000E86B002008B5FFF7B7FF0120FFF7AAFF7A
:104AA00000BF08BD08B54FF48270FFF77EFF0220FB
:104AB000FFF75AFF0820FFF76BFF00BF08BD00009B
:104AC00008B54FF48070FFF784FF0346002B14D025
:104AD0004FF48070FFF769FF0120FFF74FFF114B84
:104AE0005B7983F00103DBB2002B06D00D4B012272
:104AF0005A710C4B1B68002098474FF48270FFF7E7
:104B000068FF0346002B0AD04FF48270FFF74DFF79
:104B10000220FFF733FF034B1B680120984700BFBB
:104B200008BD00BFE86B002000B583B00346ADF8B8
:104B30000630BDF80630184600F026F803461B681C
:104B4000012B0CBF01230023DBB2184603B05DF834
:104B500004FB00B585B00346ADF80630BDF806305D
:104B6000184600F011F803461A4600231360BDF8FA
:104B70000630184600F008F803461B680393039BB1
:104B800000BF05B05DF804FB82B00346ADF8063007
:104B9000BDF8063003F1804303F5C043184602B068
:104BA0007047000082B00190034BD3F80423019BAF
:104BB0001340184602B070470060004082B0019078
:104BC000054A019B03F5A27352F823301B0A03F038
:104BD0003F03184602B070470060004082B0019069
:104BE000064A019B03F5A27352F823301B0C03F015
:104BF0000303DBB2184602B0704700BF00600040FC
:104C000082B00190019B1B681F2B02D84FF0A0437C
:104C100006E0019B1B6803F01F02019B1A60024B18
:104C2000184602B0704700BF0003005000B585B0C1
:104C300001900B468DF8033001AB1846FFF7E0FFFB
:104C40000390019A039B02F5E07253F82230019A17
:104C500023F44031039B02F5E07243F82210019ADD
:104C6000039B02F5E07253F822309DF803201204F2
:104C70001146019A1943039B02F5E07243F8221092
:104C800000BF05B05DF804FB00B585B0019001AB35
:104C90001846FFF7B5FF0390019A039B02F5E072F7
:104CA00053F822301B0C03F00303DBB2184605B0A7
:104CB0005DF804FB88B0039002910192164A05AB9F
:104CC00092E8030083E80300039B079319E0079B26
:104CD0009B0020336B4453F80C3CD3F82025019BF8
:104CE0001A60079B9B0020336B4453F80C3C019ADD
:104CF0001268C3F82025019B04330193079B0133FD
:104D00000793039A029B1344079A9A42DFD300BF8A
:104D100000BF08B0704700BFF8BD000000B585B007
:104D2000019001AB1846FFF76BFF0390019B012236
:104D300002FA03F31A46039BC3F8202500BF05B00F
:104D40005DF804FB84B001900091009B0393019BEC
:104D5000DB080293019B03F0070301930122019BEF
:104D600002FA03F30399029A0A4412781340184690
:104D700004B0704782B00190044A019B134424336D
:104D800093F90030184602B0704700BFF06B002066
:104D900082B00190034A019B52F82330184602B0BA
:104DA000704700BFF06B002084B00190074A019B60
:104DB0001344543393F900308DF80F309DF80F30C1
:104DC00023F0C003184604B0704700BFF06B00200A
:104DD00084B00190074A019B1344543393F9003087
:104DE0008DF80F309DF80F309B09DBB2184604B0E8
:104DF000704700BFF06B002000B585B00190019AAC
:104E000002210020FFF756FF002303930BE0039BD2
:104E10009B00019A13441B68002B01D0012306E07C
:104E2000039B01330393039B012BF0D90023184606
:104E300005B05DF804FB000000B587B001900023C9
:104E400005935BE0344A059B1344543393F90030D7
:104E5000B3F1FF3F4ED00598FFF7A6FF04900199EC
:104E60000498FFF76FFF0346002B44D00598FFF727
:104E7000AFFF03468DF80F300498FFF705FF034698
:104E80008DF80E309DF80E30022B01D1032300E087
:104E900002238DF80D309DF80D3019460498FFF768
:104EA000C5FE0498FFF73AFF0498FFF763FF034637
:104EB0001846FFF76DFF0290029B002B1BD09DF858
:104EC0000F30032B0FD09DF80E30022B03D19DF82D
:104ED0000F30012B07D09DF80E30032B0BD19DF81E
:104EE0000F30022B07D19DF80F20029B114604982A
:104EF000984700E000BF059B01330593059B002BFD
:104F0000A0D00198FFF778FF0346002B97D100BF90
:104F100000BF07B05DF804FBF06B002000B58BB05C
:104F20000023089301AB00221A605A604FF480738B
:104F3000ADF81A30012309930023079321E0BDF84F
:104F40001A301846FFF7F0FD0346002B0ED00998E3
:104F5000FFF728FE0346002B08D0BDF81A3018468C
:104F6000FFF7F7FD089A099B13430893099B5B0021
:104F70000993BDF81A300433ADF81A30079B01339A
:104F80000793079B072BDAD94FF4BE70FFF7CCFDD0
:104F90000346002B0DD04FF4BE70FFF7DAFD089BDF
:104FA00043F00043089301AB1A4602210020FFF7AB
:104FB00081FE089BDBB2002B29D00123099300233B
:104FC000079321E0099A089B1340002B16D00798FD
:104FD000FFF7F4FD05900798FFF700FE03468DF8F4
:104FE00013300798FFF7D4FE0390039B002B05D0E6
:104FF0009DF81320039B114605989847099B5B0079
:105000000993079B01330793079B072BDAD9089B6A
:10501000002B03DA01AB1846FFF70EFF00BF0BB001
:105020005DF804FB00B589B00190002305930023CF
:105030000493019B002B22D00823DB43019A9A4260
:105040001BD80822019B13440193019B03F0070323
:10505000002B14D0019B03F00703C3F10803039353
:10506000039BDB43019A9A4204D8019A039B1344A1
:10507000019304E00023019301E00023019300F079
:1050800009FF3C4B1B68002B01D100F0B9F8019BD4
:10509000002B67DB019B002B64D0374B1B68019A08
:1050A0009A425FD8354B0693344B1B68079304E054
:1050B000079B0693079B1B680793079B5B68019AF6
:1050C0009A4203D9079B1B68002BF1D1294B1B681F
:1050D000079A9A4246D0069B1B6808221344059300
:1050E000079B1A68069B1A60079B5A68019BD21A95
:1050F00008235B009A4213D9079A019B1344029339
:10510000079B5A68019BD21A029B5A60079B019A1F
:105110005A60069B1A68029B1A60069B029A1A60E4
:10512000154B1A68079B5B68D31A134A1360124B1E
:105130001A68134B1B689A4203D20F4B1B68104A24
:105140001360079B5B680493079B5B6843F0004216
:10515000079B5A60079B00221A600A4B1B680133A9
:10516000084A136000F0A0FE059B184609B05DF8E0
:1051700004FB00BF54BC002058BC00204CBC0020E5
:105180005CBC002060BC002000B585B00190019B94
:105190000393019B002B2BD008235B42039A1344FB
:1051A0000393039B0293029B5B68DB0F03F00103F5
:1051B000DBB2002B1CD0029B1B68002B18D1029B7A
:1051C0005B6823F00042029B5A6000F063FE029B82
:1051D0005A68094B1B681344074A1360029800F091
:1051E00065F8064B1B680133044A136000F05CFE4F
:1051F00000BF05B05DF804FB58BC002064BC002073
:1052000084B04FF4A0430293234B0393039B03F01A
:105210000703002B0CD0039B07330393039B23F05E
:1052200007030393029A039BD31A1B4A1344029366
:10523000039B1A4A1360194B00225A60039A029B7F
:10524000134401930822019B9B1A0193019B23F0B5
:1052500007030193019B124A1360114B1B68002244
:105260005A600F4B1B6800221A60039B0093009B3F
:10527000019AD21A009B5A60094B1A68009B1A6067
:10528000009B5B68074A1360009B5B68064A1360DB
:1052900000BF04B0704700BF4C6C00204CBC002025
:1052A00054BC00205CBC002058BC002084B001909D
:1052B000264B039302E0039B1B680393039B1B682D
:1052C000019A9A42F7D8039B0293039B5B68029A68
:1052D0001344019A9A4208D1039B5A68019B5B6868
:1052E0001A44039B5A60039B0193019B0293019B09
:1052F0005B68029A1A44039B1B689A4218D1039B6D
:105300001A68134B1B689A420DD0019B5A68039B85
:105310001B685B681A44019B5A60039B1B681A68F0
:10532000019B1A6008E00A4B1A68019B1A6003E0AF
:10533000039B1A68019B1A60039A019B9A4202D050
:10534000039B019A1A6000BF04B070474CBC002058
:1053500054BC002082B00190019B03F10802019B24
:105360005A60019B4FF0FF329A60019B03F10802E3
:10537000019BDA60019B03F10802019B1A61019B0A
:1053800000221A6000BF02B0704782B00190019BFA
:1053900000221A6100BF02B0704784B001900091F2
:1053A000019B5B680393009B039A5A60039B9A6876
:1053B000009B9A60039B9B68009A5A60039B009A2B
:1053C0009A60009B019A1A61019B1B685A1C019B01
:1053D0001A6000BF04B0704784B001900091009B38
:1053E0001B680293029BB3F1FF3F03D1019B1B6932
:1053F00003930CE0019B0833039302E0039B5B687B
:105400000393039B5B681B68029A9A42F6D2039B44
:105410005A68009B5A60009B5B68009A9A60009BE8
:10542000039A9A60039B009A5A60009B019A1A6142
:10543000019B1B685A1C019B1A6000BF04B0704797
:1054400084B00190019B1B690393019B5B68019AE7
:1054500092689A60019B9B68019A52685A60039B0C
:105460005B68019A9A4203D1019B9A68039B5A6038
:10547000019B00221A61039B1B685A1E039B1A6042
:10548000039B1B68184604B07047000000B585B048
:105490000190009101230393019B0293029B002B37
:1054A0005FD0029BDB6B002B5BD0029B1A6C029BD4
:1054B000DB6B0021A3FB0223002B00D001210B4654
:1054C000002B4ED101F024FD029B1A68029BDB6B7E
:1054D0000299096C01FB03F31A44029B9A60029B38
:1054E00000229A63029B1A68029B5A60029B1A6808
:1054F000029BDB6B013B0299096C01FB03F31A442D
:10550000029BDA60029BFF2283F84420029BFF2269
:1055100083F84520009B002B16D1029B1B69002BB2
:105520001CD0029B1033184600F064FF0346002B8A
:1055300014D00F4B4FF080525A6040BFBFF34F8FD3
:1055400000BFBFF36F8F09E0029B10331846FFF7CF
:1055500001FF029B24331846FFF7FCFE01F0EAFC32
:1055600001E000230393039B184605B05DF804FB9C
:1055700000ED00E000B58BB00590049113468DF866
:105580000F3000230993059B002B2ED00021049A95
:10559000059BA3FB0223002B00D001210B46002B0F
:1055A00023D1059B049A02FB03F313F1490F1CD886
:1055B000059B049A02FB03F30893089B48331846A3
:1055C000FFF730FD0990099B002B0ED0099B079334
:1055D000079B483307939DF80F20099B00931346C0
:1055E000079A0499059800F005F8099B18460BB036
:1055F0005DF804FB00B585B00390029101928DF82F
:105600000330029B002B03D1069B069A1A6002E02E
:10561000069B019A1A60069B039ADA63069B029A1C
:105620001A6401210698FFF731FF00BF05B05DF84D
:1056300004FB000000B58BB003900291019200239F
:105640000993039B089301F063FC089B9B6B0793F2
:10565000079B002B22D00299089800F091F8079B35
:105660005A1E089B9A63089B1B69002B12D0089B4B
:105670001033184600F0BEFE0346002B0AD03F4B05
:105680004FF080525A6040BFBFF34F8F00BFBFF34F
:105690006F8F00BF01F04EFC01236BE0019B002BDC
:1056A00003D101F047FC002364E0099B002B05D1E6
:1056B00005AB184600F064FF0123099301F03AFCA2
:1056C00000F0E8FB01F024FC089B93F844305BB247
:1056D000B3F1FF3F03D1089B002283F84420089BCD
:1056E00093F845305BB2B3F1FF3F03D1089B002232
:1056F00083F8452001F01EFC01AA05AB11461846AF
:1057000000F050FF0346002B25D1089800F0B4F8B4
:105710000346002B19D0089B2433019A11461846E2
:1057200000F01CFE089800F050F800F0BDFB0346A6
:10573000002B88D1114B4FF080525A6040BFBFF30D
:105740004F8F00BFBFF36F8F13E0089800F03DF854
:1057500000F0AAFB77E7089800F037F800F0A4FB08
:10576000089800F089F80346002B3FF46CAF002343
:1057700000E068E718460BB05DF804FB00ED00E0C0
:1057800000B583B001900091019B1B6C002B18D0D9
:10579000019BDA68019B1B6C1A44019BDA60019B38
:1057A000DA68019B9B689A4203D3019B1A68019BAC
:1057B000DA60019BD968019B1B6C1A46009804F0C3
:1057C00091F800BF03B05DF804FB00B585B001900F
:1057D00001F09EFB019B93F845308DF80F3013E0EC
:1057E000019B5B6A002B14D0019B2433184600F008
:1057F00001FE0346002B01D000F01CFF9DF80F3086
:10580000013BDBB28DF80F309DF90F30002BE7DC48
:1058100000E000BF019BFF2283F8452001F08AFBD6
:1058200001F076FB019B93F844308DF80E3013E0C5
:10583000019B1B69002B14D0019B1033184600F00C
:10584000D9FD0346002B01D000F0F4FE9DF80E3088
:10585000013BDBB28DF80E309DF90E30002BE7DCFA
:1058600000E000BF019BFF2283F8442001F062FBAF
:1058700000BF05B05DF804FB00B585B0019001F0F4
:1058800047FB019B9B6B002B02D10123039301E09B
:105890000023039301F04EFB039B184605B05DF80F
:1058A00004FB000084B00190009100230293009B50
:1058B000002B24D0002303931EE0174A039BDB0038
:1058C00013445B68019A9A4205D1039BDB00124A9C
:1058D0001344029313E0029B002B0AD10E4A039B50
:1058E00052F83330002B04D1039BDB000A4A1344E7
:1058F0000293039B01330393039B012BDDD9029B8E
:10590000002B05D0029B009A1A60029B019A5A60F4
:1059100000BF04B0704700BF68BC002000B587B06E
:10592000039002910192039B059301F0F1FA059B0C
:1059300093F844305BB2B3F1FF3F03D1059B0022E3
:1059400083F84420059B93F845305BB2B3F1FF3FE9
:1059500003D1059B002283F8452001F0EBFA059B5B
:105960009B6B002B06D1059B2433019A02991846A4
:1059700000F00AFD0598FFF728FF00BF07B05DF8AB
:1059800004FB00B58BB00790069105920493059B2C
:105990009B001846FFF746FB0890089B002B13D08E
:1059A0006420FFF73FFB0990099B002B08D064227D
:1059B0000021099804F030F8099B089A1A6305E061
:1059C0000898FFF7E1FB01E000230993099B002BF6
:1059D0000DD000230393099B02930D9B01930C9B15
:1059E0000093049B059A0699079800F027F8099BF5
:1059F00018460BB05DF804FB00B589B00590049122
:105A0000039202930B9B01930A9B0093029B039AC0
:105A100004990598FFF7B5FF0690069B002B05D06B
:105A2000069800F07BF80123079302E04FF0FF3364
:105A30000793079B184609B05DF804FB00B587B0D3
:105A400003900291019200930A9B186B019B9B00AB
:105A50001A46A52103F0E0FF0A9B1A6B019B03F194
:105A60008043013B9B0013440493049B23F00703F2
:105A70000493029B002B1ED00023059312E0029A90
:105A8000059B134419780A9A059B134434330A463C
:105A90001A70029A059B13441B78002B06D0059BB5
:105AA00001330593059B1F2BE9D900E000BF0A9B3A
:105AB000002283F85320089B022B01D9022308936C
:105AC0000A9B089ADA620A9B089A5A650A9B043371
:105AD0001846FFF75AFC0A9B18331846FFF755FC87
